{
  "_format": "hh-sol-artifact-1",
  "contractName": "TaskManager",
  "sourceName": "contracts/TaskManager.sol",
  "abi": [
    {
      "anonymous": false,
      "inputs": [
        {
          "indexed": false,
          "internalType": "address",
          "name": "recipient",
          "type": "address"
        },
        {
          "indexed": false,
          "internalType": "uint256",
          "name": "taskId",
          "type": "uint256"
        }
      ],
      "name": "AddTask",
      "type": "event"
    },
    {
      "anonymous": false,
      "inputs": [
        {
          "indexed": false,
          "internalType": "uint256",
          "name": "taskId",
          "type": "uint256"
        },
        {
          "indexed": false,
          "internalType": "bool",
          "name": "isDeleted",
          "type": "bool"
        }
      ],
      "name": "DeleteTask",
      "type": "event"
    },
    {
      "inputs": [
        {
          "internalType": "string",
          "name": "taskText",
          "type": "string"
        },
        {
          "internalType": "bool",
          "name": "isDeleted",
          "type": "bool"
        }
      ],
      "name": "addTask",
      "outputs": [],
      "stateMutability": "nonpayable",
      "type": "function"
    },
    {
      "inputs": [
        {
          "internalType": "uint256",
          "name": "taskId",
          "type": "uint256"
        },
        {
          "internalType": "bool",
          "name": "isDeleted",
          "type": "bool"
        }
      ],
      "name": "deleteTask",
      "outputs": [],
      "stateMutability": "nonpayable",
      "type": "function"
    },
    {
      "inputs": [],
      "name": "getTasks",
      "outputs": [
        {
          "components": [
            {
              "internalType": "uint256",
              "name": "id",
              "type": "uint256"
            },
            {
              "internalType": "string",
              "name": "taskText",
              "type": "string"
            },
            {
              "internalType": "bool",
              "name": "isDeleted",
              "type": "bool"
            }
          ],
          "internalType": "struct TaskManager.Task[]",
          "name": "",
          "type": "tuple[]"
        }
      ],
      "stateMutability": "view",
      "type": "function"
    }
  ],
  "bytecode": "0x608060405234801561001057600080fd5b50610daf806100206000396000f3fe608060405234801561001057600080fd5b50600436106100415760003560e01c806304a87e381461004657806320df458114610064578063aaba290714610080575b600080fd5b61004e61009c565b60405161005b91906106e5565b60405180910390f35b61007e6004803603810190610079919061087c565b6102e8565b005b61009a60048036038101906100959190610904565b61040b565b005b60606000808054905067ffffffffffffffff8111156100be576100bd610725565b5b6040519080825280602002602001820160405280156100f757816020015b6100e46104ec565b8152602001906001900390816100dc5790505b5090506000805b60008054905081101561022e576000818154811061011f5761011e610944565b5b906000526020600020906003020160405180606001604052908160008201548152602001600182018054610152906109a2565b80601f016020809104026020016040519081016040528092919081815260200182805461017e906109a2565b80156101cb5780601f106101a0576101008083540402835291602001916101cb565b820191906000526020600020905b8154815290600101906020018083116101ae57829003601f168201915b505050505081526020016002820160009054906101000a900460ff16151515158152505083838151811061020257610201610944565b5b6020026020010181905250818061021890610a02565b925050808061022690610a02565b9150506100fe565b5060008167ffffffffffffffff81111561024b5761024a610725565b5b60405190808252806020026020018201604052801561028457816020015b6102716104ec565b8152602001906001900390816102695790505b50905060005b828110156102de578381815181106102a5576102a4610944565b5b60200260200101518282815181106102c0576102bf610944565b5b602002602001018190525080806102d690610a02565b91505061028a565b5080935050505090565b6000808054905090506000604051806060016040528083815260200185815260200184151581525090806001815401808255809150506001900390600052602060002090600302016000909190919091506000820151816000015560208201518160010190816103589190610bf6565b5060408201518160020160006101000a81548160ff0219169083151502179055505050336001600083815260200190815260200160002060006101000a81548173ffffffffffffffffffffffffffffffffffffffff021916908373ffffffffffffffffffffffffffffffffffffffff1602179055507f1f54e1ba1832d428fbd7e7792beaf62b1fc5a382c207ffd614209c1413e94fda33826040516103fe929190610d18565b60405180910390a1505050565b3373ffffffffffffffffffffffffffffffffffffffff166001600084815260200190815260200160002060009054906101000a900473ffffffffffffffffffffffffffffffffffffffff1673ffffffffffffffffffffffffffffffffffffffff16036104e857806000838154811061048657610485610944565b5b906000526020600020906003020160020160006101000a81548160ff0219169083151502179055507ff88a35c3d2016c409a46570b994a17b408dbc83c14a03f521512d50b85386d0682826040516104df929190610d50565b60405180910390a15b5050565b604051806060016040528060008152602001606081526020016000151581525090565b600081519050919050565b600082825260208201905092915050565b6000819050602082019050919050565b6000819050919050565b61054e8161053b565b82525050565b600081519050919050565b600082825260208201905092915050565b60005b8381101561058e578082015181840152602081019050610573565b60008484015250505050565b6000601f19601f8301169050919050565b60006105b682610554565b6105c0818561055f565b93506105d0818560208601610570565b6105d98161059a565b840191505092915050565b60008115159050919050565b6105f9816105e4565b82525050565b60006060830160008301516106176000860182610545565b506020830151848203602086015261062f82826105ab565b915050604083015161064460408601826105f0565b508091505092915050565b600061065b83836105ff565b905092915050565b6000602082019050919050565b600061067b8261050f565b610685818561051a565b9350836020820285016106978561052b565b8060005b858110156106d357848403895281516106b4858261064f565b94506106bf83610663565b925060208a0199505060018101905061069b565b50829750879550505050505092915050565b600060208201905081810360008301526106ff8184610670565b905092915050565b6000604051905090565b600080fd5b600080fd5b600080fd5b600080fd5b7f4e487b7100000000000000000000000000000000000000000000000000000000600052604160045260246000fd5b61075d8261059a565b810181811067ffffffffffffffff8211171561077c5761077b610725565b5b80604052505050565b600061078f610707565b905061079b8282610754565b919050565b600067ffffffffffffffff8211156107bb576107ba610725565b5b6107c48261059a565b9050602081019050919050565b82818337600083830152505050565b60006107f36107ee846107a0565b610785565b90508281526020810184848401111561080f5761080e610720565b5b61081a8482856107d1565b509392505050565b600082601f8301126108375761083661071b565b5b81356108478482602086016107e0565b91505092915050565b610859816105e4565b811461086457600080fd5b50565b60008135905061087681610850565b92915050565b6000806040838503121561089357610892610711565b5b600083013567ffffffffffffffff8111156108b1576108b0610716565b5b6108bd85828601610822565b92505060206108ce85828601610867565b9150509250929050565b6108e18161053b565b81146108ec57600080fd5b50565b6000813590506108fe816108d8565b92915050565b6000806040838503121561091b5761091a610711565b5b6000610929858286016108ef565b925050602061093a85828601610867565b9150509250929050565b7f4e487b7100000000000000000000000000000000000000000000000000000000600052603260045260246000fd5b7f4e487b7100000000000000000000000000000000000000000000000000000000600052602260045260246000fd5b600060028204905060018216806109ba57607f821691505b6020821081036109cd576109cc610973565b5b50919050565b7f4e487b7100000000000000000000000000000000000000000000000000000000600052601160045260246000fd5b6000610a0d8261053b565b91507fffffffffffffffffffffffffffffffffffffffffffffffffffffffffffffffff8203610a3f57610a3e6109d3565b5b600182019050919050565b60008190508160005260206000209050919050565b60006020601f8301049050919050565b600082821b905092915050565b600060088302610aac7fffffffffffffffffffffffffffffffffffffffffffffffffffffffffffffffff82610a6f565b610ab68683610a6f565b95508019841693508086168417925050509392505050565b6000819050919050565b6000610af3610aee610ae98461053b565b610ace565b61053b565b9050919050565b6000819050919050565b610b0d83610ad8565b610b21610b1982610afa565b848454610a7c565b825550505050565b600090565b610b36610b29565b610b41818484610b04565b505050565b5b81811015610b6557610b5a600082610b2e565b600181019050610b47565b5050565b601f821115610baa57610b7b81610a4a565b610b8484610a5f565b81016020851015610b93578190505b610ba7610b9f85610a5f565b830182610b46565b50505b505050565b600082821c905092915050565b6000610bcd60001984600802610baf565b1980831691505092915050565b6000610be68383610bbc565b9150826002028217905092915050565b610bff82610554565b67ffffffffffffffff811115610c1857610c17610725565b5b610c2282546109a2565b610c2d828285610b69565b600060209050601f831160018114610c605760008415610c4e578287015190505b610c588582610bda565b865550610cc0565b601f198416610c6e86610a4a565b60005b82811015610c9657848901518255600182019150602085019450602081019050610c71565b86831015610cb35784890151610caf601f891682610bbc565b8355505b6001600288020188555050505b505050505050565b600073ffffffffffffffffffffffffffffffffffffffff82169050919050565b6000610cf382610cc8565b9050919050565b610d0381610ce8565b82525050565b610d128161053b565b82525050565b6000604082019050610d2d6000830185610cfa565b610d3a6020830184610d09565b9392505050565b610d4a816105e4565b82525050565b6000604082019050610d656000830185610d09565b610d726020830184610d41565b939250505056fea264697066735822122016f7646739b26eeb4de8aa064adba2f424fbed1128dda6daeea4c01c997b88f364736f6c63430008110033",
  "linkReferences": {},
  "deployedLinkReferences": {}
}